:02000002D0002C
:1040000000400D00BCA80D00000006000C000501DA
:084010000401BD0B00000000DB
:04401800DC920D0029
:1040200009480A49884208B505D0094A824202D0A7
:10403000121A05F067F80748074A0021121A05F01E
:104040006FF8014808BD00BFE8E403202CA80D006C
:1040500050E5032050E50320F0E7032070B5074E3C
:10406000074C03F0F9F9A41BA4080025A54200D1D0
:1040700070BD56F8043B98470135F7E7F8A70D00E7
:104080001CA80D0000F070BC08B500F085FFBDE86D
:10409000084003F0A3B902F07FBD02F07DBD02F03D
:1040A00083BD000008B5034A00210C2002F0C8FCC3
:1040B000FEE700BF31670D000078B0FA80F04009DC
:1040C000704701230370704737B5044608460191D5
:1040D00005F064F86368A268451CE818904208D8A7
:1040E000206801992A46184405F00CF860682844B5
:1040F000606003B030BD000038B584690A4B0360CE
:1041000005467CB16368013B63605BB92368204668
:104110009B689847A368013BA3601BB923682046AE
:10412000DB689847284638BD44A50D0008B502F065
:1041300007FB034B1860BDE8084002F01DBD00BF3F
:10414000D4E7032003682BB14268934202D2184699
:1041500004F0C2BF0020704738B50568044645B179
:1041600043689D4205D2284605F018F80130054401
:104170002560204638BD000038B504460B46D0E91E
:1041800001012568044A091A284402F01DFD6368EC
:1041900001300344636038BDF0920D0038B5044629
:1041A0000B46D0E901012568044A091A284402F0A7
:1041B0000BFD636801300344636038BDF3920D006A
:1041C00038B50B4C0546204601F030FF2046012152
:1041D00001F059FB4FF00113296800222046C4E981
:1041E000042303F02AF82046BDE8384002F08AB9DB
:1041F000B0E5032008B5086804F06EFF0121042033
:1042000003F095FF0121052003F091FF0620012115
:1042100003F08DFFBDE808404FF4FA6003F0A4B846
:1042200008B500234377006803F068FDBDE8084047
:1042300002F008BA2DE9F0438F188FB0B942CDE9EA
:10424000051706468946904680F0C28005A80D886D
:10425000FFF782FF03689F4240F2BA800598037817
:10426000412B49D1013004F037FF052837DDFF2409
:1042700047F276239D4200F0D38041D847F2612374
:104280009D4200F0A88047F264239D426BD046F621
:1042900070539D4241D1784D784EDFF8F4810598F6
:1042A000874240F295800378412B4BD1013004F0D6
:1042B00013FF052839DDFF2405A8FFF74DFFDDF8C2
:1042C00014902946484604F057FF014600283DD186
:1042D000204603F01BFF05A8FFF73EFFDFE7059828
:1042E000013004F0F9FE0028C1DB0598013004F02C
:1042F000F3FE0E30C4B2BBE705A8FFF723FFF9E7D2
:1043000047F264739D424FD047F276739D4200F0AE
:10431000978047F261739D426FD00023CDE901334E
:1043200002220092728B19463AE00598013004F09F
:10433000D3FE0028BFDB0598013004F0CDFE0E301F
:10434000C4B2B9E705A8FFF7FDFEF9E731464846D4
:1043500004F012FF28B14146484604F00DFF002842
:10436000B9D10121B4E70AAB4549079307A8102347
:104370000025CDE90853FFF7A7FE07A82146FFF760
:10438000FBFE204603F0ECFE014607A8FFF706FF00
:10439000089BCDE90155013B0093079B2A46142158
:1043A000304600F065FB13E005A8FFF7D5FE036873
:1043B0009F420DD9A4B20121204603F0A7FE05A813
:1043C000FFF7C0FE011E18BF0121204603F0AFFE1B
:1043D0000FB0BDE8F0830AAB079307A81023294963
:1043E0000025CDE90853FFF76FFE07A82146FFF728
:1043F000C3FE204603F0C7FEC6E705A8FFF7ACFEE4
:1044000003689F42E4D9A4B20121204603F07EFE56
:1044100005A8FFF797FE0146204603F0CBFED7E73D
:1044200020468DF8284002F00FF903460AA823B170
:10443000154A934201D09847CAE702F001F9C7E74D
:1044400005A8FFF789FE059B8DF81C40A3EB090129
:10445000A8EB01012046CDE90A310C9102F0FEF8EB
:1044600003460AA907A823B1084A934201D09847F6
:10447000AEE702F0E6F8ABE7F7920D00FA920D0016
:1044800002930D0005930D0041660D0043660D007B
:10449000FE920D002DE9F0418CB004AF04460522D8
:1044A0000068391D02F037FFB8B3052804D000209A
:1044B0002037BD46BDE8F081B7F80520130A43EA6E
:1044C0000223B7F80720A7F8053099B2130A43EA88
:1044D00002231FFA83F8A7F807300029E7D03B79B9
:1044E00023BB02F0ABF80246E060607FB7F807300C
:1044F000C0B9B7F80510012914D1092B0FD0C82B6A
:1045000001D0042BD4D1012562612046657700F0EB
:104510005DFBFFF70BFE02F095F80120C8E70323CF
:104520006377C5E7581F18BF0120C1E7B8F5806F52
:1045300003D92046FFF774FEEFE708F1080323F0E4
:1045400007036E46ADEB030D04AD206842462946D5
:1045500002F0E1FE80454FF000007FD1B7F8073050
:10456000E85402F06BF83B79E060142B00F0A68071
:1045700048D80F2B00F0A28007D8022B48D0062B7A
:1045800051D02046FFF74CFE58E0112BF9D1002303
:104590003B70B7F807302B449D42C7E903534DD217
:1045A00007F10C00D5F80080FFF7D6FDFB68B7F8DF
:1045B00007105D1B4D1BC7E905357B68FD61C3F323
:1045C0000F236383644B984500F0BF8000F28C801A
:1045D000A3F57F236FF400721344984500F09D808B
:1045E00079D8A3F50033063B984500F09C8003F58D
:1045F0000033033398456BD107F11401384602F0BC
:1046000020F865E0292B1BD0372B17D01D2BB8D1F4
:10461000637F43B901236377204600F0D7FAFFF7A1
:1046200085FD02F00FF80023C821B7F8052000919E
:10463000CDE901331946204600F01AFA01200DE0B9
:10464000A3681BB9402002F0A7FAA060B7F8078062
:10465000A8444545C7E9055802D30020B54627E7D9
:1046600029464022A06804F0A1FDA368002583F834
:104670003F5007F11400FFF76FFD036843451BD25D
:10468000786920B1BB69984214D204F029FD85B243
:10469000206803F033FB2368A2685A631D87002358
:1046A000637701F0CBFFA0F59C500838C4E9030004
:1046B0006061C3E72846EAE75025E9E77B68B7F879
:1046C0000720C3F30F23638329462046FFF7B2FD7B
:1046D00000236383B2E7214B9845F9D107F1140118
:1046E000384601F0AEFFF3E71D4B984521D003F1AA
:1046F0009F6303F5003303F5807398451FD003F1E2
:104700006E4303F5302303F586739845E0D107F136
:104710001401384601F095FFDAE707F11401384635
:1047200001F08FFFD4E707F11401384601F089FF4B
:10473000CEE707F11401384601F083FFC8E707F11F
:104740001401384601F07DFFC2E707F11401384635
:1047500001F077FFBCE700BF766673006462670014
:1047600061636F6E2DE9F04104468CB00D46FFF792
:10477000DDFC637F022B00F0A880237F628B013376
:10478000DBB223770AB1012516E0022BFBD82068A3
:1047900003F0D3F8B8B125B9206803F055FA002822
:1047A00011DD2046FFF776FE05460028F4D120688B
:1047B00003F0A4FA01F046FF237F013B237728464C
:1047C0000CB0BDE8F08101F039FF0646206803F027
:1047D000B4F8677F012F054629D120B966612046CC
:1047E000FFF71EFDE8E7E3684FF21862F31A934201
:1047F00004D92046FFF714FD0025DDE74AF6C8720C
:10480000934203D82369F31A9342BCD9636941F2F6
:104810007072F31A9342B6D90023CDE901330093A5
:104820001A460621204600F023F96661ABE7002F07
:10483000A9D16269B21A40B141F270739A42A2D909
:10484000206803F05BFA6777D6E741F288339A4233
:1048500099D9206803F052FAD4F800C0DCF834E0AB
:10486000BCF83880BEF1000F0BD02B464246714693
:10487000604603F0A1FA431E5D425D418DB9666159
:104880009AE7134B06930CF120070FCF07AD0FC526
:104890003B682B704246734606A9604603F059F9FF
:1048A000E9E76368059301261846268304F076FC41
:1048B0000022CDE90122059B009032461D212046B1
:1048C00000F0D6F82369636176E7002577E700BF3B
:1048D00074A40D002DE9F04115468CB00446043552
:1048E00040F6B8300F46984601F0A6FE0FCD01AE57
:1048F0000FC62B683370676001F0A0FEA0F59C50D6
:10490000083801AFC4E9030060610FCF07AE0FC6DE
:104910003B68337007AF0FCF25684FF0000CC5F828
:1049200034C0A5F8388020350FC533682B70664633
:1049300044F24F67206803F0E1F9667701F07EFEEC
:104940000546637F012B0CD001F078FE401BB84276
:1049500004D800212046FFF705FFF2E7637F012B13
:10496000E8D10CB0BDE8F08130B5012189B0042058
:1049700003F0CCFB0121052003F0C8FB0121062038
:1049800003F0C4FB0021022003F0C0FB00210E2035
:104990002E4D03F0BBFB00210F2003F0B7FB03F00B
:1049A00047FC02F067FF284600F0BCFF284601F0F4
:1049B0003DFB0121284600F066FF002424494FF00A
:1049C00001132846C5E9044302F037FC284601F0EC
:1049D00099FD03F02DFC01461E4801F083F928B92A
:1049E00002F05EFE1C4902F028FCFEE7194801F0C7
:1049F00030F9184801F0FFF82146042003F097FB36
:104A00002146052003F093FB2146062003F08FFB8F
:104A1000A2230093AC22EA23A72102A802F0CCFD36
:104A200042F2823302AA0D490D48FFF753FF214697
:104A30000B48FFF797FE074801F061F8094B188013
:104A4000094B1C70094B1C7009B030BDB0E5032048
:104A500008930D0040E6032046930D006D930D0072
:104A600054E503203CE6032022E6032023E603204E
:104A70002DE9F04F83B000AF044600683D6B8846D7
:104A800016469946EB4602F058FF00287FD0B8F151
:104A90001D0F04D84C4B23FA08F3DB0702D4637FC5
:104AA000012B74D146B9668B36B9238B01339BB287
:104AB000002B71D02383268BA8F10C03082B16D86A
:104AC000D4E90323934238BF134603F1420A01F0AD
:104AD000B5FDAAEB0000002860DB00212046FFF7AF
:104AE00041FE01F0ABFDAAEB00000028F5DAB9F1B8
:104AF000000F5AD06B1D7A6B002ABA6B08BF0022D8
:104B000003EB020A0AF1070323F00703ADEB030DE1
:104B1000BB6BC7F804D0EA18C2F3072376BA43EA9E
:104B200002238DF80080ADF80160ADF80330B9F1D3
:104B3000000F3CD0002D3AD02A4649460DF1050021
:104B400004F0E0FA681D7B6B3BB1BB6B2BB11A46DE
:104B50007B68796B184404F0D5FA002555452AD2B4
:104B6000AAEB05027B682068B2F5806F28BF4FF47E
:104B70008062591902F0CBFE0646002001F05CFD70
:104B8000BEB9206803F0BAF8667701F05BFD0C3718
:104B9000DD46BD46BDE8F08F01238BE7217F00296C
:104BA000A5D12046FFF7DEFDA1E70523A3E70520F9
:104BB000C9E73544D2E703D02046FFF731FBE6E7EB
:104BC00001F03CFD2061E2E74500002000B595B012
:104BD00004AB00220193492300930292034B11215D
:104BE000FFF746FF15B05DF804FB00BF80940D0091
:104BF00030B5ADF2244D08AB00240546059305A859
:104C00004FF48063CDE90643FFF75EFA069B013B54
:104C10000093CDE90144059B22460E212846FFF76B
:104C200027FF0DF2244D30BD2DE9F047ADF5866D1F
:104C300002F036FDBE49BF4DDFF8508302F0FDFAA9
:104C4000BD4800F0B1FE20B101232B70002388F88D
:104C50000030B94800F0B2FE0446002800F0988009
:104C600000232B70012388F800300021042003F07A
:104C70005EFA0021052003F05AFA0021062003F015
:104C800056FA0F2003F07FFA80B203F067FDA4A369
:104C9000D3E9002303F0CCFDA3A3D3E9002303F061
:104CA000F1FEA64B002203F00BFCA54B002203F003
:104CB000BFFD06460F4608A8A2490CAC02F0C9F990
:104CC000A14908A802F047FA47EC106B06212046DC
:104CD00002F012FA214608A802F039FA204602F042
:104CE0006DF99A4908A802F036FA994908A802F025
:104CF00032FA984B00223046394603F099FD964B24
:104D0000002203F0BFFE0022944B03F0DBFB41ECDA
:104D1000100B0621204602F0EFF9214608A802F008
:104D200016FA204602F04AF908A9204602F0B4F922
:104D30002046FFF745FA204602F040F94FF4806321
:104D4000059405A800248649CDE90643FFF7BCF980
:104D5000214605A8FFF710FADDE906310598814ADA
:104D6000C91ACDE90067184401F02EFF069B0130F7
:104D70001844069001380090CDE90144059B7A481B
:104D800022461421FFF774FE08A802F017F951E03B
:104D90002B78002B49D07548DFF8F4A1744F00F050
:104DA0002AFF724800F0ABFE6649064608A802F0EA
:104DB00050F9BAF80030B3420CAD5FD9012104209C
:104DC00003F0B5F92146052003F0B1F9214606208C
:104DD00003F0ADF93A88BAF800309A4207D3654932
:104DE0006148FFF705FF644908A802F0B4F9634978
:104DF00008A802F0B0F90A223146284602F069F903
:104E0000294608A802F0A3F9284602F0D7F808A915
:104E1000284602F041F92846FFF7D2F9284602F069
:104E2000CDF808A83E8002F0C9F898F80030002BB1
:104E30007FF41BAF0E2003F0A6F9054602F030FC0C
:104E4000A9B204460A2202F002FA204602F0E9F969
:104E50004B4B1B68B3F5C86F4FF0010157DD0520C0
:104E600003F065F90021042003F061F90021062018
:104E700003F05DF90DF5866DBDE8F087DFF814915C
:104E8000B9F800309E421AD22146042003F04FF9AF
:104E90000121052003F04BF92146062003F047F9D4
:104EA0003B88BAF800209A4203D2B9F800209A420F
:104EB0009DD834492C48FFF79BFE324994E796D998
:104EC0002146042003F033F92146052003F02FF991
:104ED0000121062003F02BF93A88B9F800309A42F4
:104EE00085D84FF480632849079305A8CDE9055478
:104EF000FFF7EAF8069B1C48013B00930E21CDE921
:104F00000144059B2246FFF7B3FD1F496CE70420CF
:104F100003F00DF900210520A6E700BFAFF30080E4
:104F20006666666666660A400000000000FEAF40E6
:104F30008E930D0022E60320B0E503200000E03F41
:104F4000000059405C940D0051940D005B940D00DD
:104F50005D940D000000224000001440000040401D
:104F60006A940D006D940D0054E5032040E6032083
:104F70003CE60320A5930D00CB930D0040940D005B
:104F800028E60320F5930D001B940D0023E6032073
:104F900024E6032020E6032008B5064800F0EBFCD9
:104FA0000F2003F0DDF8012803D1BDE80840FFF72A
:104FB0003BBE08BDB0E5032038B51B4D00210120E4
:104FC00001F05EFD284602F0E3FE05F11C0002F050
:104FD000AFFA0024154A16496C6328462C8703F063
:104FE0004FF9144B14489C61C3E90054C3E90244CF
:104FF000C3E904449C83114C00F047FD072120467F
:1050000000F062FC20460E4C084A0E4903F038F9C5
:105010000D49204602F01DF82046044A0B49BDE820
:10502000384003F02DB900BF74E5032050E503209C
:10503000F9400D0054E5032040E60320B0E50320CD
:105040002CE6032095580D0073940D00BD6F0D00E4
:10505000704710B51021044603F017F9204610BD23
:105060000EB403B503AB002153F8042B019302F0F7
:105070000CF902B05DF804EB03B0704773B5044659
:1050800008462279A36832B1A3B90B4902B0BDE842
:10509000704002F0BFB8094A267B094D0949647B7C
:1050A000012E18BF2946CDE900140749FFF7D8FFA4
:1050B00002B070BD054AEFE7DC940D005C940D0072
:1050C000D8940D00D4940D00F2940D00CB940D00F3
:1050D0002DE9F04F85B01F46BDF93880BDF83C3052
:1050E000A8EB0209A7EB010AB9F1000FB8BFC9F19B
:1050F0000009BAF1000FB8BFCAF1000AD1458346D2
:105100000C46154604DD3A462C4647460D46904669
:10511000BC4205DD2A464546904622463C46174697
:105120003E1BB2B20092A8EB0502002AB8BF524261
:105130000192C6F3C03202FA86F64545B4BF012299
:105140004FF0FF3276100292BC421CDCDBF80020EC
:105150000393D145D2F81880C7BF294622462A4674
:1051600021465846C047019A039BB61AB1B236B2DF
:10517000002E05DA029A1544009A56182DB236B25E
:10518000013424B2E0E705B0BDE8F08F704710B4F9
:1051900004682469A4465DF8044B604730B4046891
:1051A000BDF808500295A46BA44630BC604730B4EB
:1051B0000468BDF808500295E46BA44630BC604713
:1051C00070B4BDF90C50BDF810600468CDE9035609
:1051D000246CA44670BC60472DE9F3411C4603686B
:1051E000BDF820805B6905461646013C34440F46F5
:1051F00024B298472B68CDF8048000949C6A284616
:105200003B4632463946A0472B68DB6A284602B047
:10521000BDE8F04118472DE9F3411D460368BDF88C
:1052200020805B69044617460E469847CDE9007812
:1052300022686B1E3344956A20461BB23A463146BB
:10524000A8472368DB6A204602B0BDE8F041184752
:105250002DE9F3471E460368BDF928905B69BDF848
:105260002C800C460546174698472644B4422B68C6
:105270000BDACDF80080D3F820A021464B463A4601
:1052800028460134D04724B2F0E7DB6A284602B052
:10529000BDE8F047184713B502680191B0F90E1048
:1052A0000091146CB0F90C3000221146A04702B0F6
:1052B00010BD2DE9F3471D460368BDF82C805B69DE
:1052C000BDF9289004460F46164698472368CDF846
:1052D0000080D3F824A032462B4639462046D047DA
:1052E0002368CDF8008009F1FF323244D3F824A0BE
:1052F00039462B46204612B2D0472368CDF80080AD
:10530000D3F820A032464B4639462046D0476B1E84
:10531000D9192368CDF800801D6A20464B463246D5
:1053200009B2A8472368DB6A204602B0BDE8F0470F
:10533000184770472DE9F74399421646BDF9287082
:10534000BDF82C90026880460D461C4613D1BE4223
:10535000C8BF3346CDF82890C4BF3E461F467B1CCD
:10536000946B9B1B1BB2324629464046A44603B0B1
:10537000BDE8F0436047BE420AD19942C2BF0B4626
:1053800025461C46631CCDF82890D46B5B1BE9E7CF
:1053900053699847CDE90079D8F8003040469F6AB4
:1053A000324623462946B847D8F80030DB6A4046E3
:1053B00003B0BDE8F043184701F00303B0F90A2039
:1053C0008376C907B0F9083059BF8381C2818281D1
:1053D000C381704730B54281C281074A074D0181C0
:1053E000002481814FF0FF31C0E90512446005605F
:1053F00004610477046230BD01010001189A0D00B8
:105400002DE9F04F89B0CDE902120268BDF948805C
:105410000493BDF94C3052690593BDF850A0044681
:10542000904718F107024FF0000648BF08F10E023E
:105430004FEAE20B01963546039B019ABDF9041031
:105440009A18059B8B4212B227DD049B33444FF020
:10545000000906930FFA89F080451FFA89F117DDDC
:105460004F0705BF069BC0106D001D5C18BFEDB255
:105470002B060AD5029B206807921944836909B25A
:105480001F4620465346B847079A09F10109E1E74C
:10549000019B013301935E44CEE72368DB6A20461B
:1054A00009B0BDE8F04F18472DE9F04F2DED028B04
:1054B00091B01646026ABDF874809DF878509DF848
:1054C0007C4003911F46BDF8703004938346002A48
:1054D00040F0C580B0F90C308B4240F34C81B0F9FC
:1054E0000E30B34240F34781062313FB0513002B14
:1054F00040F3418106EBC403002B40F33C81037F62
:105500001BB9AF2F84BF0137FFB2DBF8003058461C
:105510005B6998470522099200220592984A07EB99
:105520008703D3180C93B3B20693059A0C9B9B5C2C
:105530000793ABB20B93BDF80C300893039B02FBAF
:1055400005F919FA83F90FFA89F308EE103A0823DE
:105550000A93039B02EB030A4FF000090FFA8AFA41
:10556000079ADBF80030D20752D5012D1FFA89F2D5
:105570003ED1012C3CD19B6906991F46049B0A44ED
:1055800012B251465846B84709F101034FFA83F960
:10559000079B5B0807930A9B013B13F0FF030A93E9
:1055A000DED1059F01377BB20593099B013B13F0C8
:1055B000FF030993B9D1049B43450FD0012DDBF8BC
:1055C00000303BD1012C39D10899CDF8008005314C
:1055D0001C6A3246082309B25846A047DBF800305F
:1055E000DB6A584611B0BDEC028BBDE8F04F18479E
:1055F000069914FB02F20A44049901910094DB69B4
:1056000018EE101A1F4612B22B465846B847BBE791
:10561000049A4245B8D0012D1FFA89F207D1012C16
:1056200005D19B6906991F460A444346A8E7069997
:10563000CDF8048014FB02F20A44DFE70B9ACDF8A0
:10564000048002EB8201089AE4000A4411460094A7
:10565000DC6932462B4609B25846A047BEE7137AAA
:10566000516812680D92FF1AFFB201EBC70331F8BF
:10567000372006929A780992DA780B92012D93F9E5
:10568000052093F906A00A9201D8012C57D9BDF93B
:10569000283008930FFA8AF30793DBF80030584656
:1056A0005B699847B3B24FF000080E931AFA86F37D
:1056B000C14647460F930B9B9F428FD2079B0E9A82
:1056C0003B4403FB0423002205920F9A1BB202EB1A
:1056D000070A08EE103A0FFA8AFA4346099A059922
:1056E000914241D25A1CD2B25B070C9207D1069B61
:1056F00006990D9A01339BB212F80190069319F0A6
:10570000800F12D0012DDBF80030BDF80C101AD13B
:10571000012C18D10A9A9B691144059A11441E461E
:105720005246049B09B25846B047059E0136F3B273
:105730004FEA490905935FFA89F90C9BCEE70023EC
:10574000CDE90733A9E70598089A024402FB051141
:10575000049ACDE90042DB6918EE102A1E4609B210
:105760002B465846B047E0E7099B013798445FFA5B
:1057700088F8FFB29FE711B0BDEC028BBDE8F08F57
:105780000F950D00F0B5026A85B004460B46002A5D
:1057900034D10A2908D1438A0282427E03EBC20334
:1057A0006382012005B0F0BD0D29FAD0E17E007EB4
:1057B000657E71B1B4F91060062111FB0061B4F986
:1057C0000C60B142C1BFB4F91210228201EBC502D4
:1057D0006282E28A0192A28A0092CDE90205B4F9BE
:1057E0001220B4F910102046FFF75EFE237E228AB5
:1057F00003EB430302EB43032382D2E70A2907D1D9
:1058000000230382937A417E428A01FB0323C7E788
:105810000D29C6D0157AA942C3D3517A9942C0D373
:1058200051685D1BEDB201EBC505AF782FB3E97888
:1058300019B3E17E007E667E91B195F90510394479
:10584000B4F9107000FB0171B4F90C70B94207DDB6
:1058500000272782B4F91210927A02FB06126282A4
:10586000E28A0192A28A0092CDE90206B4F91220DE
:10587000B4F910102046FFF717FE2979237E228AFB
:1058800001FB0323B8E7012938BF012101764176E6
:105890007047000010B5064B03600446006D08B168
:1058A00000F05EFF204600F049FA204610BD00BF20
:1058B000709A0D0010B50446FFF7ECFF20467021EA
:1058C00002F0E3FC204610BD30B585B004460D461D
:1058D00002F0AEFC104A1149CDE901214FF0FF3230
:1058E0008021034600922046202200F0ADFA0C4BA6
:1058F00023600023C4E9143504F1580000F068F86F
:1059000004F1600000F064F804F1680000F060F851
:10591000204605B030BD00BF801A0600A0860100F9
:10592000709A0D0013B50446503000F011FF636DFE
:10593000D90705D50222042104F1580000F05CF8D3
:10594000636D9A0705D50022032104F1600000F081
:1059500053F8636D5B0705D50222114604F1680018
:1059600000F04AF8012300933C220221204600F077
:105970006BFB02B010BD10B5436DD907044602D5CC
:10598000583000F046F8636D9A0703D504F16000C3
:1059900000F03FF8636D5B0705D504F16800BDE8D2
:1059A000104000F036B810BD436D024613F0010000
:1059B00003D002F1580000F05CB87047436D024616
:1059C00013F0020003D002F1600000F052B87047FB
:1059D00000210A22C0E900127047002310B50446D6
:1059E000C171837188B202F0BBFB08B10323A371BC
:1059F00000F0A6FE206010BD38B50C4605461146E5
:105A0000A0B202F083FB21462846BDE83840FFF7EC
:105A1000E4BF38B50446C07902F0A2FBA57900388E
:105A200025F0080318BF0120C5F340058542A37186
:105A30000AD000F085FEA379206083F00203A371F1
:105A4000A079C0F3C00038BD00F07AFE2368C01A08
:105A5000A3889842F4D3A37903F00103AB42EFD0BB
:105A600000F06EFEA379206083F0010343F0080389
:105A7000E5E7807900F00900A0F108035842584199
:105A800070470368C9B29B681847704710B5044651
:105A90006021006801F020FF206801F028FFB0FAC3
:105AA00080F0400910BD38B505460C4600686021FD
:105AB00001F012FF2868036821469B689847286810
:105AC000002101F010FF08B1002038BD2868022233
:105AD000602101F0FEFE286803681B6998470028D2
:105AE000F2D0286803685B69984704462868036811
:105AF0005B699847E4B244EA002080B2E5E70921F7
:105B0000FFF7D1BF0C21FFF7CEBF70B504460E469C
:105B100000686021154601F0DFFE20680368314609
:105B20009B689847E9B22068FFF7ABFF290A206815
:105B3000FFF7A7FF206801F0DAFEB0FA80F0400915
:105B400070BD70B504460D461646FFF7ACFF00F475
:105B50007F4040EA060229462046BDE87040FFF734
:105B6000D4BF70B504460D461646FFF79CFFC0B281
:105B700040EA062229462046BDE87040FFF7C5BF2F
:105B800008B5FFF790FFC0F3072008BD2DE9F041ED
:105B900004469DF818700D46984616466AB1FFF700
:105BA00082FFC0B200EA080343EA07022946204602
:105BB00036B1BDE8F041FFF7C4BFFFF7E1FFF1E701
:105BC000BDE8F041FFF7CDBFB1F5A07F07B50ED21C
:105BD0009F290ED84F298CBF402300230093012218
:105BE0003F230321FFF7D2FF03B05DF804FBC0237E
:105BF000F4E78023F2E707B500210091FE2301229C
:105C0000FFF7C4FF03B05DF804FB072907B50FD801
:105C100003290FD810D002290CBF042300230093BE
:105C20000122F1230321FFF7B1FF03B05DF804FB6C
:105C30000E23F4E70C23F2E70823F0E707B500236F
:105C400000930122FE230321FFF7A0FF03B05DF8BC
:105C500004FB07B501220092FE230321FFF796FF04
:105C600003B05DF804FB07B50F298CBF08230023A0
:105C700000930022F7230321FFF788FF03B05DF8AC
:105C800004FB07B5022300930122EF230421FFF751
:105C90007DFF03B05DF804FBC72907B516D8B3290B
:105CA00016D89F2916D88B2916D8772916D8632994
:105CB00016D84A2994BF002101210091F82300221F
:105CC0000421FFF763FF03B05DF804FB0721F4E74D
:105CD0000621F2E70521F0E70421EEE70321ECE7D6
:105CE0000221EAE738B504460846216001F0C2FD0A
:105CF0002046FFF7CBFE054610B90025284638BDE3
:105D00002046FFF7FFFEB0F5C37FF6D12046C8213D
:105D1000FFF7C2FF20462821FFF756FF2046082143
:105D2000FFF773FF10212046FFF79DFF2046FFF786
:105D3000A8FF2046FFF782FFE0E7000010B5044B04
:105D400003600446C06A08B100F02EFF204610BD73
:105D50007C9F0D0010B50446FFF7F0FF2046502150
:105D600002F093FA204610BD002910B54BDBB0F9C4
:105D70000C408C4247DD002A45DBB0F90E409442CE
:105D800041DD847E022C1FD0032C26D0012C04D1AF
:105D90000489D24314440A4621B2012B23D0022B9A
:105DA00032D083BB002A13460489C06AB8BFD31D12
:105DB000DB1013FB041102F0070201239340425C45
:105DC00022EA030242541EE00489C9432144448963
:105DD000D243224409B212B2DFE74489C9430C44DA
:105DE000114622B2D9E7002A04891346B8BFD31D51
:105DF000DB1013FB0411C36A02F00700012282408A
:105E0000585C02435A5410BD002A13460489C06AE4
:105E1000B8BFD31DDB1013FB041102F007020123EE
:105E200003FA02F2435C5A40CCE710B5044690F9FD
:105E30003600012180B202F07AF9606A18B1BDE83B
:105E4000104000F040BF10BD70B504461D4600264E
:105E5000FFF7C0FA114B2360666215B902F0E8F94A
:105E60000546FF2384F8333084F836309DF910302E
:105E700084F837300A4BA363012384F83C30059B38
:105E8000A3644FF6FF72069BA286C4E90A562664F5
:105E9000A4F84460E364204670BD00BF7C9F0D0001
:105EA000C89A0D00F8B50446806A0D4690B194F981
:105EB000301001F015FDA06A036800219B68984727
:105EC000A06A036829469B689847A06ABDE8F84025
:105ED00001F00DBD94F93530014698B202F027F972
:105EE000606A20B12946BDE8F84000F073BF08267B
:105EF000802794F9330005EA070180B202F017F910
:105F000094F93400012180B202F011F994F93400BF
:105F1000002180B202F00BF9013E4FEA5707E8D1A9
:105F2000F8BD38B50446806A0D4680B1A16C01F019
:105F30009DFC002D204614BFA721A621FFF7B2FF2C
:105F4000A06A88B1E16CBDE8384001F08FBC606A9E
:105F500018B104F1380100F0CFFE94F936000021A9
:105F600080B202F0E4F8E4E72046BDE83840FFF7ED
:105F70005CBF2DE9F8430446806A0D468F1840B394
:105F800094F9301001F0ACFCA06A036800219B6812
:105F900098470126BD42A06A17D01F2E0CD901F0E8
:105FA000A6FC94F93010A06A01F09AFCA06A03687C
:105FB00000219B6898470126A06A15F8011B036819
:105FC00001369B689847F6B2E4E7BDE8F84301F074
:105FD0008EBC94F93530014698B202F0A8F8AF4271
:105FE00022D0606A15F8019B18B1494600F0F2FE14
:105FF000F5E708264FF0800894F9330009EA080114
:1060000080B202F094F894F93400012180B202F0D9
:106010008EF894F93400002180B202F088F8013E35
:106020004FEA5808E8D1DAE7BDE8F883B0F90A305A
:10603000DA1D48BF03F10E02B0F90830C06AD21071
:106040005A43002103F06CB82DE9FF411E46C36A94
:106050009DF8288004460F461546B3B12046FFF749
:10606000E5FFB4F90A00B4F9081020281FDC20234A
:106070000122CDE90132203873237339009300EBFC
:10608000D070894B01EBD1711FE0B0F90A30D81DF7
:1060900048BF03F10E00B4F90830C010584300F0B7
:1060A0007BFDE0620028D9D104B0BDE8F081402337
:1060B0004FF0010CCDE9013C522340385239009396
:1060C0007A4B00EBD07001EBD17140F34F0241F3FA
:1060D0004F012046FFF794F9A06A84F83170002838
:1060E00078D0002D74D1B4F90A30202B0CBF3C2598
:1060F0003D2584F83050B8F1000F01D001F0BAFB13
:10610000FEB194F9370000281BDB012180B201F0B9
:10611000FDFF94F93700012180B202F008F8012058
:1061200001F022F994F93700002180B201F0FFFF5D
:106130000A2001F019F994F93700012180B201F029
:10614000F6FFA06A002874D0A16C01F08FFB042236
:1061500057492046FFF70DFFA17A0139C9B2204601
:10616000FFF7A0FE534904222046FFF702FF94F9EF
:106170003130012B0CBF102114212046FFF792FE75
:1061800004224D492046FFF7F4FEA3684B4A934290
:106190005CD14B4904222046FFF7EBFED921204673
:1061A000FFF780FE94F93130012B0CBF2221F12141
:1061B0002046FFF777FE204642490622FFF7D9FE28
:1061C000A06A002863D0E16C01F050FB01206BE76E
:1061D0006DB28EE794F93500012180B201F096FF8F
:1061E00094F93600012180B201F090FF94F9360055
:1061F000012180B201F09BFF656A3DB1B8F1000F4B
:106200003FF47EAF284600F04DFD79E794F9330066
:10621000012180B201F07AFF94F93400012180B2AB
:1062200001F074FF94F93400294680B201F07FFF39
:1062300066E7606A18B104F1380100F05DFD94F979
:106240003600002180B201F072FF80E71E4A9342BF
:106250000ED11E4903222046FFF78BFE94F9313000
:10626000012B0CBF9F21CF212046FFF71BFE95E796
:10627000174A934292D1174903222046FFF779FE2D
:1062800094F93130012B0CBF1021AF21ECE794F9C8
:106290003600012180B201F04AFF606A002895D0E3
:1062A00000F011FD92E700BF949D0D00D49A0D00FF
:1062B000DC9F0D00E09F0D00E49F0D00800020009A
:1062C000EE9F0D00E89F0D0080004000F29F0D0042
:1062D00060001000F59F0D0070B5002ABDF8105049
:1062E0003DDBB0F90A40944239DD0029BEBF5B189E
:1062F0001BB20021B0F90840CE18A642C4BF631AF1
:106300001BB2002B2BDDC06AD61014FB0611014412
:1063100002F0070001228240012DD2B216D0022DD8
:106320000BD0E5B9D243D2B20B44994217D011F841
:10633000010B104001F8010CF7E70B4499420ED015
:1063400011F8010B504001F8010CF7E70B4499429A
:1063500005D011F8010B104301F8010CF7E770BDEF
:10636000F0B50029BDF8146076DBB0F90850A942F9
:1063700072DA002ABCBFD21813B2B0F90A40B8BF13
:106380000022D718A742C4BFA31A1BB2002B63DD9B
:10639000C2F3C404C76A15FB041112F00702DBB292
:1063A00007EB010423D0C2F10802D2B22C4D934274
:1063B0003CBF4FF0FF0CA2EB030EAD5C3CBF4CFAB0
:1063C0000EFC0CEA0505012E07D0022E2ED04EB988
:1063D00017F801C02CEA050503E017F801C045EAEB
:1063E0000C057D54934237D3B0F908100C449A1A27
:1063F000D2B2072A0ED9022E1DD113462178C943E5
:106400002170083BB0F90810DBB2072B0C44F5D81B
:1064100002F0070202B3134B012E9B5C19D0022E2F
:106420001BD0CEB9227822EA030314E017F801C08A
:1064300085EA0C05D5E7002E14BFFF25002513467D
:106440002570083BB0F90810DBB2072B0C44F7D8D5
:10645000DEE7227813432370F0BD22785340FAE739
:10646000CC9F0D00D49F0D0070B41446827EBDF801
:106470000C60022A0DD0032A18D0012A11D10289FA
:10648000E443144424B203960A46214670BCFFF745
:1064900067BF42890589E44319441444691A24B248
:1064A00009B20396224670BCFFF716BF458919440E
:1064B000691A09B2E7E730B41446827EBDF8085085
:1064C000022A0DD0032A18D0012A11D1E21804891A
:1064D000A41A24B202950A46214630BCFFF7FCBE3E
:1064E0000289C9431144E2184489A41A09B224B2AA
:1064F0000295224630BCFFF733BF4289C94311449D
:1065000009B2E7E72DE9F8430446806A002842D043
:10651000A16C01F0ABF9474905222046FFF729FDA0
:10652000217A01392046C9B2FFF7BCFCB4F90A3020
:10653000DE1D48BF03F10E06D4E90A052389F610D3
:1065400013FB06F615FA86F600283AD094F93010B7
:1065500001F0C6F9A06A036840219B6898470127AB
:10656000B542A06A24D01F2F0CD901F0C0F994F9CC
:106570003010A06A01F0B4F9A06A036840219B685A
:1065800098470127A06A15F8011B036801379B682B
:106590009847FFB2E4E7606A18B104F1380100F0EF
:1065A000ABFB94F93600002180B201F0C0FDB2E7E8
:1065B00001F09DF9A06A78B3E16CBDE8F84301F001
:1065C00055B994F93500012180B201F0B0FDB54212
:1065D000F0D0606A15F8019B18B1494600F0FAFB4B
:1065E000F5E708274FF0800894F9330009EA08011D
:1065F00080B201F09CFD94F93400012180B201F0D9
:1066000096FD94F93400002180B201F090FD013F25
:106610004FEA5808E8D1DAE794F93600012180B250
:1066200001F085FD606A18B1BDE8F84300F04BBB8E
:10663000BDE8F883F89F0D0000F096BE00F080B82A
:10664000704770477047000003065ABF024B53F86B
:1066500020000020704700BF00A00D0003065ABFB5
:10666000024B53F820000020704700BF00A20D002D
:1066700008B5024B1B689B68019308BD68020300C4
:1066800008B5024B1B68DB68019308BD6802030074
:1066900008B5024B1B685B68019308BD2C02030020
:1066A00008B5024B1B689B68019308BD2C020300D0
:1066B00008B5024B1B68DB68019308BD2C02030080
:1066C00008B5024B1B681B69019308BD2C0203002F
:1066D00008B5024B1B685B69019308BD2C020300DF
:1066E00008B5024B1B689B6A019308BD2C0203008E
:1066F00008B5024B1B681B6B019308BD2C020300FD
:1067000008B5024B1B689B6F019308BD2C02030068
:1067100008B5024B1B685B69019308BD6C0203005E
:1067200008B5024B1B685B68019308BD18020300A3
:1067300008B5024B1B68DB68019308BD1802030013
:1067400008B5024B1B685B69019308BD1802030082
:1067500008B5024B1B681B6B019308BD4802030080
:1067600008B5024B1B685B6B019308BD4802030030
:1067700008B5024B1B685B6C019308BD480203001F
:1067800008B5024B1B689B6C019308BD48020300CF
:1067900008B5024B1B685B69019308BD64020300E6
:1067A00008B5024B1B681B6A019308BD6402030015
:1067B00008B5024B1B689B6A019308BD6402030085
:1067C00008B5024B1B681B68019308BD3C0203001F
:1067D00008B5024B1B68DB68019308BD3C0203004F
:1067E00008B5024B1B681B69019308BD3C020300FE
:1067F00008B5024B1B685B69019308BD3C020300AE
:1068000008B5024B1B689B69019308BD3C0203005D
:1068100008B5024B1B68DB69019308BD3C0203000D
:1068200008B5024B1B681B6A019308BD3C020300BC
:1068300008B5024B1B689B6A019308BD3C0203002C
:1068400008B5024B1B681B68019308BD28020300B2
:1068500008B5024B1B68DB68019308BD28020300E2
:1068600008B5024B1B689B69019308BD2802030011
:1068700008B5024B1B68DB69019308BD28020300C1
:1068800008B5024B1B681B6A019308BD2802030070
:1068900008B5024B1B685B6A019308BD2802030020
:1068A00008B5024B1B689B6A019308BD28020300D0
:1068B00008B5024B1B68DB6A019308BD2802030080
:1068C00008B5024B1B681B6B019308BD280203002F
:1068D00008B5024B1B685B6B019308BD28020300DF
:1068E00008B5024B1B681B6C019308BD280203000E
:1068F00008B5024B1B681B6D019308BD28020300FD
:1069000008B5024B1B689B69019308BD3802030060
:1069100008B5024B1B68DB69019308BD3802030010
:1069200008B5024B1B681B6A019308BD38020300BF
:1069300008B5024B1B689B6A019308BD380203002F
:1069400008B5024B1B681B6B019308BD380203009E
:1069500008B5024B1B689B6B019308BD380203000E
:1069600008B5024B1B681B68019308BD3002030089
:1069700008B5024B1B685B69019308BD3002030038
:1069800008B5024B1B68DB69019308BD30020300A8
:1069900008B5024B1B681B6A019308BD3002030057
:1069A00008B5024B1B685B6A019308BD3002030007
:1069B00008B5024B1B68DB6B019308BD3002030076
:1069C00008B5024B1B681B6C019308BD3002030025
:1069D00008B5024B1B685B6C019308BD30020300D5
:1069E00008B5024B1B681B68019308BD4C020300ED
:1069F00008B5024B1B681B69019308BD4C020300DC
:106A000008B5024B1B685B69019308BD4C0203008B
:106A100008B5024B1B689B69019308BD4C0203003B
:106A200008B5024B1B68DB69019308BD4C020300EB
:106A300008B5024B1B681B6A019308BD4C0203009A
:106A400008B5024B1B685B6B019308BD6002030035
:106A500008B5024B1B681B6D019308BD6002030063
:106A600008B5024B1B685B68019308BD2002030058
:106A700008B5024B1B685B69019308BD2002030047
:106A800008B5024B1B68DB6A019308BD20020300B6
:106A900008B5034B1B68D3F88830019308BD00008C
:106AA0002002030008B5034B1B68D3F89430019310
:106AB00008BD00002002030008B5024B1B685B689C
:106AC000019308BD4002030008B5024B1B689B6898
:106AD000019308BD4002030008B5024B1B68DB6848
:106AE000019308BD4002030008B5024B1B681B69F7
:106AF000019308BD4002030008B5024B1B685B69A7
:106B0000019308BD4002030008B5024B1B689B6956
:106B1000019308BD4002030008B5024B1B68DB6906
:106B2000019308BD4002030008B5024B1B681B6AB5
:106B3000019308BD4002030008B5024B1B681B6BA4
:106B4000019308BD4002030008B5024B1B685B6B54
:106B5000019308BD4002030008B5024B1B681B6C83
:106B6000019308BD4002030008B5024B1B685B6C33
:106B7000019308BD4002030008B5024B1B689B68E7
:106B8000019308BD4402030008B5024B1B68DB6B90
:106B9000019308BD4402030008B5024B1B681B6843
:106BA000019308BD1C02030008B5024B1B685B681B
:106BB000019308BD1C02030008B5024B1B689B68CB
:106BC000019308BD1C02030008B5024B1B68DB697A
:106BD000019308BD1C02030008B5024B1B685B6AE9
:106BE000019308BD1C02030008B5024B1B68DB6B58
:106BF000019308BD1C02030008B5024B1B685B6CC7
:106C0000019308BD1C020300002240681146FFF7F3
:106C10008BBF002240681146FFF796BF40680022F4
:106C2000FFF78ABF4068002281F00101FFF774BFBF
:106C3000002340681A461946FFF766BF00234068E4
:106C40001A461946FFF758BF002240681146FFF761
:106C50004BBF002240681146FFF736BF4068002254
:106C60000221FFF739BF002340681A46FFF724BF0F
:106C7000024B03225A60024A1A60704750E6032012
:106C800008A40D000021FFF79BBE0021FFF7A0BE66
:106C900010B5044608462170FFF772FE00236360BA
:106CA000204610BD10B504460078FFF7EBFF48B949
:106CB00020784FF6FF71FFF753FE2078BDE81040B3
:106CC000FFF7E3BF10BD0078FFF7DFBF400830B526
:106CD0001860002418688842E5B206D90134082CEF
:106CE00002D040081860F5E70725024B5B5D137082
:106CF00030BD00BF3CA40D002DE9F04306468FB027
:106D000000780C46FFF7BEFF00281BDB3578142205
:106D1000002109A802F004FA0B23002209A9284641
:106D2000ADF82430FFF73CFE9DF82D3013B19DF8EF
:106D30002C5055B10027B946B846012523795DB1DD
:106D4000C3B100200FB0BDE8F083DDF830809DF8BE
:106D500034909DF83570F1E7002B35D1A368434599
:106D600008D18DF820908DF82170BDF82020A389DE
:106D70009A42E6D00023A1688DF80F300A9804AB40
:106D80000DF10F02FFF7A2FF217985B989B9A36838
:106D900043450ED38DF820908DF82170BDF820204A
:106DA000A3899A4205D1049B434502D1C9E7002932
:106DB000F9D100230193637B00939DF80F20237B7F
:106DC0003078FFF7F5FDBCE7CDE900552B462A46A4
:106DD0000121F5E708B50078FFF7CAFDC0B208BD8C
:106DE00010B50446006818B1FFF7DEFE00232360EB
:106DF00010BD10B50446FFF7F3FF204610BD00009C
:106E000010B5094B094C022200201A60084B206083
:106E1000A080A071A360FFF723FE2046054A064923
:106E2000BDE8104001F02CBA64E6032058E60320C8
:106E30000000FFFF50E50320F36D0D0010B5044680
:106E400002F0ACF9013823182046834206D90278B3
:106E5000197800F8011B03F80129F6E710BD70B599
:106E60000C46911E2229054622D820466DB1B5FB5D
:106E7000F2F602FB1655E9B2092D94BF30315731B5
:106E8000C9B200F8011B3546F0E702462344302121
:106E9000934202D902F8011BFAE71A1A834238BF5B
:106EA0000022002383542046FFF7C8FF204670BD10
:106EB0000020FCE738B5031E0C4615460EDAB3F188
:106EC000004F4FF02D0214BF5842184601230A709C
:106ED0002A461944FFF7C3FF204638BD0123F9E7CE
:106EE00070B586B0064601AD684600F071FB0FCD67
:106EF000341D0FC42B682370304606B070BD0000EF
:106F00002DE9F04757EC106B80460C4610EE100A46
:106F100000220023394601F0FDFE28B107F10043AD
:106F20001F462D2304F8013B00234FF001090A22DC
:106F3000D9B2884503D902FB09F90133F8E748467D
:106F400001F00CFC32463B4601F072FC06460F464F
:106F500001F040FF05468A4601F034FC02460B462C
:106F60003046394601F0ACFA134B002201F0E6FE40
:106F700010B101354AF1000A4A462846D317514656
:106F800001F010FF0123154621460A22FFF767FF93
:106F9000B8F1000F0DD0204602F000F92E23211881
:106FA00023540A22434628460131BDE8F047FFF743
:106FB00056BFBDE8F08700BF0000E03F10B50446B3
:106FC0000068FFF7F1FD204610BD10B504460068CB
:106FD00008B1FFF7E9FD0023C4E90133236010BDC8
:106FE00038B504460D4600680131FFF7E5FD10B1E4
:106FF000C4E90005012038BD10B50368044623B17B
:1070000043688B4201D3012010BD2046FFF7E8FF03
:107010000028F9D0A368002BF5D122681370F2E79D
:1070200037B50D46114601920446FFF7E5FF019A78
:1070300028B92046FFF7C9FF204603B030BDA26043
:107040002946206802F05EF82268A3680021D15426
:10705000F2E7002313B5C0E90033044683600373ED
:1070600041B10846019102F099F801990246204683
:10707000FFF7D6FF204602B010BD884210B5044687
:1070800005D00B682BB18A681946FFF7C9FF204667
:1070900010BDFFF79AFFFAE710B500230446C0E9D8
:1070A000003383600373FFF7E8FF204610BD13B57C
:1070B000044659B10846019102F070F80199024660
:1070C0002046FFF7ADFF204602B010BDFFF77DFF61
:1070D000F9E710B504468AB00023C4E90033A36081
:1070E0002373084601A9FFF7E5FE01A92046FFF733
:1070F000DEFF20460AB010BD10B504468AB000235A
:107100000846C4E90033A360237301A9C0B2FFF7A6
:10711000F7FE01A92046FFF7CAFF20460AB010BDBE
:1071200070B505460E4609B9002070BD6AB1846885
:1071300014442146FFF760FF0028F5D02868AB68AB
:107140003146184402F022F8AC600120EDE78A686D
:107150000968FFF7E5BF13B50446084651B1019130
:1071600002F01CF801990246204602B0BDE810402A
:10717000FFF7D6BF02B010BD10B50446006808B1D5
:10718000FFF7FEFA204610BD10B58368044613B120
:10719000032201469847204610BD000010B5064C5A
:1071A000002320462360FFF7E3FA2046034A044900
:1071B000BDE8104001F064B868E6032050E5032004
:1071C00079710D00F8B506460D468F180024BD42B2
:1071D0000CD0336815F8011B9B6830469847031E96
:1071E00001DB1C44F3E7002C08BF1C462046F8BD19
:1071F00013B50446084659B1019101F0CFFF236849
:107200000199DB680246204602B0BDE810401847ED
:1072100002B010BD08B5FFF7EBFF08BD03689B681F
:10722000184738B50D210546FFF7F8FF0A21044637
:107230002846FFF7F3FF204438BD38B50546FFF771
:10724000D7FF04462846FFF7ECFF204438BD30B591
:107250008BB000238DF82430012A98BF0A2209AC94
:107260000D46B1FBF2F101FB125303F0FF03092BB2
:1072700094BF30333733DBB2AA4204F8013DEFD973
:107280002146FFF7B5FF0BB030BD2DE9F04186B0C8
:1072900000AF05460E46381D142114463B60FFF72B
:1072A0009BFC13280ED8391D2846FFF7A1FF044682
:1072B0001EB12846FFF7B5FF044420461837BD46E7
:1072C000BDE8F08100F1080323F00703E846ADEBC9
:1072D000030D2246411C3B686846FFF77DFC69466A
:1072E0002846FFF785FF0446C546E1E710B504468A
:1072F000FFF726FAE060236820465B69984700287C
:1073000008DAFFF71DFAE368C01AA3689842F2D3BF
:107310004FF0FF3010BDF8B506460D461746002465
:10732000BC4207D03046FFF7E1FF031E02DB2B55BE
:107330000134F5E72046F8BD002340681A46194697
:10734000FFF7DABB014B024A1A6070476CE6032074
:107350004CA40D00024B1A68024B1A60704700BF24
:10736000E8E4032070E603200021FFF781BB10B59D
:107370000446FFF709FF204610BD00000348044AF9
:1073800004490023836000F07BBF00BF74E6032044
:1073900050E503206F730D00014B1860704700BF6C
:1073A000ECE4032008B50B4B43B100F079F9036816
:1073B0001B699847002801DDAFF30080064B43B1FD
:1073C00000F0ECF903681B699847002801DDAFF372
:1073D000008008BD000000000000000008B5FFF7B5
:1073E000E1FFFFF7ADF9014B186008BDD4E70320BA
:1073F0000248034A0349121A01F084BE00F4032034
:1074000004F4032028A80D0007B5002300931A46B2
:107410006FF07701FFF746FB03B05DF804FB000057
:1074200007B543880A2B08D0502B0BD1094B1B689A
:107430004BB103B05DF804EB1847FFF7E5FF03B06D
:107440005DF804FB002300931A466FF07701FFF705
:1074500029FBF4E788E6032038B5124C1248134D97
:107460000021FFF7C9FB2368AB42114B0CBF01227F
:1074700000221A7002D0FFF7BBFF2560FFF750F91A
:10748000044601F055FE0B4B13B12046AFF30080CC
:1074900000210848FFF778FBBDE838400648002186
:1074A000FFF7F6BA00F4032099730D001E1C279A0B
:1074B00084E603200000000021740D00704710B521
:1074C0001821044600F0E1FE204610BDF0B5037D12
:1074D000062B8DB00E4600F104074FF0000412D0C9
:1074E00000F1080515F8011D0A223046FFF7AFFE2E
:1074F000AF42044419D0002CF4D02E213046FFF7BF
:107500008DFE0444EEE72F236A4639460A208DF8A3
:107510000040FFF73DF9684601F040FE336802463F
:10752000DB68694630469847044620460DB0F0BDFA
:1075300010B5054B0446112240F8043B002101F030
:10754000EFFD204610BD00BF74A40D000346074A9E
:1075500010B543F8042B01F1100251F8044B43F825
:10756000044B9142F9D10A781A7010BD74A40D0031
:10757000037D042B04D14068003818BF01207047F8
:10758000062B07D143683BB983682BB9C3681BB985
:107590000069F1E7002070470120704710B59DF8A1
:1075A000084044EA032343EA024242EA0161042319
:1075B0004160037510BD000037B5044D05609DF8AE
:1075C00018500095FFF7EAFF03B030BD74A40D001A
:1075D00013B5054B0360CB7800938B784A78097814
:1075E000FFF7DCFF02B010BD74A40D0041747047BA
:1075F000704708B50021007CFFF70AFA40EAE07006
:1076000008BD08B50121007CFFF702FA40EAE070EE
:1076100008BD08B5007CFFF7F3F920EAE07008BD6B
:1076200008B5007CFFF7E4F920EAE07008BD13B567
:107630000446007C0191FFF7E3F90028019901DC81
:10764000607C20B1207CFFF7EBF920EAE07002B00B
:1076500010BD007CFFF7ECB910B51421044600F012
:1076600014FE204610BD000010B54FF47A73044696
:1076700008460021C4E90113044B23600123207450
:1076800063741146FFF7ACF9204610BD88A40D00C5
:1076900010B514220446002101F042FD204610BD21
:1076A00010B5104C88B003A8FFF7F2FF2178BFF3A4
:1076B0005B8F11F0010111D120460191FCF7FCFC18
:1076C000019958B103AA0848FFF7CEFF2046FCF7FE
:1076D000F8FC064A0649044800F0D2FD024808B00A
:1076E00010BD00BF8CE6032090E6032050E5032088
:1076F000F1750D0070474174704708B5007CFFF7C5
:1077000097F820EAE07008BD08B5007CFFF768F83C
:1077100020EAE07008BD08B5007CFFF771F840EA88
:10772000E07008BD08B5007CFFF762F840EAE07041
:1077300008BD007CFFF76CB837B5457C04462DB119
:10774000207C03B0BDE83040FFF742B8007C0191D7
:10775000FFF76EF800280199F2DC284603B030BD2F
:1077600010B51421044600F090FD204610BD000025
:1077700010B54FF0000C0446084611464FF47A72DB
:10778000C4E901C2044A22600122207462741A46CC
:10779000FFF716F8204610BDB8A40D0013B50E4C27
:1077A0002178BFF35B8F11F0010112D120460191C6
:1077B000FCF782FC019960B1084A094B0948FFF7C0
:1077C000D7FF2046FCF77DFC074A0849054800F032
:1077D00057FD044802B010BDA4E60320A8E603202C
:1077E0002CE70320B0E7032050E50320F5760D00D9
:1077F0007047F8B5064615460C468F18BC4206D0B1
:10780000336814F8011B9B6830469847F6E7284612
:10781000F8BD007C0022FFF733B8007C0021FFF7A1
:1078200037B8007C0021FFF73BB8007C0021FFF750
:107830003FB8007C0021FFF743B810B5142104467F
:1078400000F023FD204610BD10B54FF47A730446B6
:1078500008460021C4E90113034B2360207411463C
:10786000FFF73EF8204610BDE8A40D00007C002282
:10787000FEF7E6BF0023007C1A461946FEF7E8BF74
:107880007FB500221423CDE90122ADF804300B7836
:107890008DF808304B680393CB680493007C0B7A17
:1078A000059301A9FFF724F807B05DF804FB1FB5A5
:1078B000003B8DF800104FF06401039118BF0123C5
:1078C000694601928DF80830FFF7DAFF05B05DF8E0
:1078D00004FB0123FFF7EBBF007C0022FEF7C0BFD3
:1078E000C9B2FFF7F9BF007C0022FEF7C1BF01213A
:1078F000FFF7F9BF13B503688DF80710DC6B0122A1
:107900004FF0FF330DF10701A04702B010BD10B4D6
:107910000368DC6B4FF0FF33A4465DF8044B60470F
:1079200013B5134602688DF80710D46B0DF10701EB
:107930000122A04702B010BD704738B543691A68EC
:10794000002A054610DAB3F88620B3F884309A424C
:107950000AD103681B699847044628B92B68284652
:10796000DB6A9847204638BD0120FCE74369186868
:10797000C043C00F70477047064B994210B500F1E5
:107980000C0405D0084600F085FC002808BF002440
:10799000204610BD44A40D0010B5AC21044600F0F3
:1079A00074FC204610BDFCF77ABB2DE9F0414FF086
:1079B000000886B01D46C0F8048004460E461746EF
:1079C0004146102202A801F0ABFB6B1C09D04FF41A
:1079D0007A70B5FBF0F3CDE9023800FB135358433E
:1079E0000490606910230093006802AB41F2050225
:1079F00040F6FF71FEF784FF002807DAFFF7F4F87E
:107A000003686360002006B0BDE8F0816069002370
:107A100000683A463146FEF793FF031EEEDB184638
:107A2000F1E7000038B584690A4B036005467CB174
:107A30006368013B63605BB9236820469B68984795
:107A4000A368013BA3601BB923682046DB68984705
:107A5000284638BD44A50D0010B50446FFF7E2FFE7
:107A600020461C2100F011FC204610BD70B54D6968
:107A7000054B04468C3544F8043B06460FCD0FC435
:107A80002B682370304670BD74A40D0010B5436997
:107A9000B3F88620B3F884309A42044605D063696F
:107AA000B3F884201344187910BD03681B69984704
:107AB0000028F4D14FF0FF30F6E710B54369B3F872
:107AC0008620B3F884309A42044608D06369B3F83C
:107AD0008420511CA3F884101344187910BD036846
:107AE0001B6998470028F1D14FF0FF30F6E7F8B551
:107AF00043691746B3F88620B3F884309A420546A6
:107B00000E4616D06969B1F88430B1F88640E41A9F
:107B1000BC4228BF3C46043322461944304601F09B
:107B2000F1FA6A69B2F884302344A2F8843020461E
:107B3000F8BD03681B6998470028E3D14FF0FF3474
:107B4000F5E742690023A2F884304269A2F8863042
:107B500070472DE9F0411F4603680C46DB6A8AB086
:107B6000054616469847237DD5F81480042B0CBF94
:107B700002200A2006220121FEF7EAFEC8F80000D2
:107B80006B691B68002B08DA2B682846DB6A002427
:107B9000984720460AB0BDE8F0812846FFF7D1FF9C
:107BA000B7B1002303A9F8B20393ADF81030FEF784
:107BB000AFFD0028E8D1686906230093006803AB95
:107BC00041F20B0240F6FF71FEF79AFE0028DBD16E
:107BD0001C22002103A801F0A3FA237D042B1DD150
:107BE0004FF407733046ADF80C30FEF7E1FDADF809
:107BF0000E006068FEF7D4FD04906B691C221868C3
:107C000003A9FEF78DFE0028BED104340FCC6D69A8
:107C10008C350FC523682B700124BAE740F61C236E
:107C20003046ADF80C30FEF7C3FD05AEADF80E00E2
:107C3000231D04F1140718685968324603C208333B
:107C4000BB421646F7D1D8E730B54269B2F8863064
:107C50008BB004462BB1B2F884209A4201D1FFF7D1
:107C600070FF61690868002818DBB1F886507F2D25
:107C700014D804310823C5F180022944FEF758FEC8
:107C8000002813DD6369B3F886200AB9A3F88420BD
:107C90006369B3F886201044A3F886006369B3F8DB
:107CA0008600B3F88430C01A0BB030BDFEF79CFFDD
:107CB00003680B2BF2D0FEF797FF03680B2BEDD078
:107CC00020230025CDE90235FEF78EFF03680193DE
:107CD000084B0949009302AA2B463220FEF7B8FE52
:107CE00063691868FEF714FE63694FF0FF321A608B
:107CF000D4E700BF0FA50D0008A50D0010B543691E
:107D000004461868002801DBFEF702FE63694FF0A5
:107D1000FF321A606069112200218C3001F000FAF4
:107D20002046BDE81040FFF70CBF10B50023044605
:107D30000160C0F884308830FFF7FAFB204610BDA0
:107D400073B500234FF47A72C0E901320E4A036121
:107D5000026043610446AC200191FCF79CF9051ECA
:107D600005F10C0608D00123C5E90133074B019941
:107D70002B603046FFF7D9FF2046C4E90565FFF7C1
:107D8000E0FE02B070BD00BF44A50D0028A50D00A7
:107D900010B54FF0FF310446FFF7D2FF204610BD6B
:107DA00010B504460068002801DBFEF7B1FD20464F
:107DB00010BD0C30FFF7F4BF2DE9F043984603687F
:107DC00093B00D460024DB6A0646174698472846BE
:107DD0006B46224621460094FEF752FC05460028D9
:107DE00063D1009B002B4BD05B69002B48D006A8C9
:107DF000FFF79EFB009B5C696378022B04D1211D79
:107E000006A8FFF76DF826E00A2B24D11122294697
:107E100001A801F085F9A368002B38D004F108030C
:107E20000DF1040C183418685968624603C208330F
:107E3000A3429446F7D1062301A90CA88DF814306B
:107E4000FFF784FB0DF1340CBCE80F0007AC0FC446
:107E5000DCF80030237006A8FFF78AFB80B1336896
:107E600007ADD3F82090124B0C930FCD0DAC0FC47F
:107E70002B6823703A4643460CA93046C84705464E
:107E80000098FEF7F5FB284613B0BDE8F083E368E1
:107E9000002BC3D14FF6FF70D4F81090FEF780FC92
:107EA0008145BBD104F11401AAE72546E8E700BFEC
:107EB00074A40D00002240681146FEF715BE002292
:107EC00040681146FEF730BE002240681146FEF7BA
:107ED0003BBE40680022FEF72FBE4068002281F0C2
:107EE0000101FEF719BE002340681A461946FEF745
:107EF0000BBE002240681146FEF7E6BD4068002236
:107F00000221FEF7E9BD002340681A46FEF7D4BD02
:107F1000024B04225A60024A1A607047C4E70320E9
:107F200090A50D00002340681A46FEF7C5BD4068C5
:107F300000220221FEF7D0BD002240681146FEF764
:107F4000C3BD002240681146FEF7CEBD0023406845
:107F50001A461946FEF7D0BD002340681A46194656
:107F6000FEF7D2BD40680021FEF7F6BD4068002153
:107F7000FEF7FABD4068002281F00101FEF7CCBD9A
:107F800040680022FEF7D8BD002240681146FEF787
:107F9000DBBD002240681146FEF7C6BD2DE9F04367
:107FA000002495B016460D460746FFF7C1FA214654
:107FB00018220EA8009401F0B3F84023CDE90C3448
:107FC00021466B460CAA3046FEF75AFB04460028B1
:107FD0004CD1024601216868FEF786FD02218046E9
:107FE00022466868FEF780FD009E81462146002EED
:107FF0003CD000293AD17368022B03D00A2B11D050
:10800000F669F4E7B8F1000F0AD0716906A80431E7
:1080100007ADFFF7DDFA0FCD3C1D0FC42B682370B1
:108020004146EDE7B9F1000F01D14946E8E774692F
:10803000102201A801F074F806238DF8143001AD68
:1080400004F108031834186859682A4603C2083333
:10805000A3421546F7D101A906A807ADFFF776FAA6
:108060000FCD3C1D0FC42B682370DEE70098FEF790
:10807000FFFA384615B0BDE8F0830000024B034A12
:108080001A6000225A607047CCE70320CCA50D008F
:10809000232813B502D9002002B010BDA0F10B03B4
:1080A000022B1AD8174C2178BFF35B8F11F0010116
:1080B0000BD120460191FBF7FFFF019928B112482F
:1080C000FEF7E6FD2046FBF7FCFF0F4B1878FEF7A6
:1080D0005FFC0028DFD10120DEE7012809D800F08D
:1080E000A7F80021007CFEF7F3FB80F00100C0B28E
:1080F000D2E709380128EED8FFF750FB007CFEF7E5
:108100008FFBF2E744E6032048E60320232838B536
:1081100004460D460AD8FF2908D0FFF7B9FF28B159
:1081200029462046BDE83840FEF7BABA38BD38B512
:1081300004460D46FEF7BCFAFF2810D0062804D8E6
:108140004D2323FA00F0C30709D42046FFF7A0FF10
:1081500028B129462046BDE83840FEF7B1BA38BDFF
:1081600010B50446FEF7A4FA031FDBB2012B08D9B1
:108170002046FFF78DFF20B12046BDE81040FEF7F6
:10818000A7BA002010BD0D2810B504469CBF0E34C0
:10819000A4B22046FFF77CFF50B103212046FEF732
:1081A00077FA032804D12046BDE81040FEF7A0BAB4
:1081B000002010BD38B504460D46FFF769FFF0B149
:1081C00004212046FEF764FA042805D1A9B220460E
:1081D000BDE83840FEF784BA02212046FEF758FA7F
:1081E00002280CD12046FEF763FA012801D00428AA
:1081F00005D129462046BDE83840FEF781BA38BD92
:1082000038B500232025438014230446038085606D
:1082100005610649284600F03AF80449606028469E
:1082200000F035F8E060204638BD00BF00A60D0024
:1082300030B50F4D2978BFF35B8F11F0010487B083
:1082400013D12846FBF738FF78B101A8FFF7D8FF14
:1082500001AA21460748FFF7F7FA2846FBF731FF46
:10826000054A0649034800F00BF8024807B030BD44
:10827000D8E70320DCE7032050E50320F1770D0069
:108280000B460146184600F02FBFFBF708BFFBF76F
:1082900004BF0000014900F0F9B800BF1CA60D00A2
:1082A0007FB500241023CDE90234036800949E6951
:1082B0008DF8044015466B461268B0479DF80430AF
:1082C00003F00603062B03BF009B2B600120204612
:1082D00004B070BD0098904214BF01200620704782
:1082E00010B5034B0360044600F0CDF8204610BDE6
:1082F0005CA60D0010B50446FFF7F2FF20460821EA
:10830000FFF7C3FF204610BD2DE9F0411F46DDE910
:108310000834DDF8188098450646154607D10799B8
:1083200000F0B4F818B165710020BDE8F08139465D
:10833000304600F0ABF80028F6D00123C4F80080E6
:108340002571A371F0E738B515461C4600F09EF87C
:1083500020B10823E36006232560237138BD73B57F
:1083600005460C4601921E4600F090F850B9032EC7
:1083700008D82368019A5B692946204602B0BDE807
:108380007040184702B070BD10B5034B036004463F
:10839000FFF7A6FF204610BDBCA60D0010B5044691
:1083A000FFF7F2FF20460C21FFF76FFF204610BDBC
:1083B000F7B5089F974205460E4614460AD0A868AE
:1083C00002680897156A31462246AC4603B0BDE8FC
:1083D000F04060471946019300F058F8019B0028CF
:1083E000EDD0062003B0F0BD2DE9F14F0D46194642
:1083F000DDE90A4BDDE90CA681461746984600F0F8
:1084000045F890B1002D3460377109DB61198A4558
:108410000CBF06210121B171002001B0BDE8F08F31
:108420000235F9D10123B371F6E7544506D1594617
:10843000484600F02BF808B17771EDE7D9F808004D
:108440000368CDE90CA6CDE90A4BDC693A46434600
:108450002946A44601B0BDE8F04F60472DE9F04140
:1084600007460C4615461E46FFF76DFF48B9B8682B
:1084700003689F692A4633462146BC46BDE8F04161
:108480006047BDE8F081704700207047814208B521
:108490000ED0406803782A2B0CD049680B782A2B21
:1084A00008BF013100F068FEB0FA80F0400908BD55
:1084B0000120FCE70020FAE781F0004102E000BF64
:1084C00083F0004330B54FEA41044FEA430594EA94
:1084D000050F08BF90EA020F1FBF54EA000C55EACF
:1084E000020C7FEA645C7FEA655C00F0E2804FEAA0
:1084F0005454D4EB5555B8BF6D420CDD2C4480EA82
:10850000020281EA030382EA000083EA010180EAB1
:10851000020281EA0303362D88BF30BD11F0004FFF
:108520004FEA01314FF4801C4CEA113102D0404235
:1085300061EB410113F0004F4FEA03334CEA133370
:1085400002D0524263EB430394EA050F00F0A78088
:10855000A4F10104D5F1200E0DDB02FA0EFC22FA83
:1085600005F2801841F1000103FA0EF2801843FA77
:1085700005F359410EE0A5F120050EF1200E012A68
:1085800003FA0EFC28BF4CF0020C43FA05F3C018A6
:1085900051EBE37101F0004507D54FF0000EDCF11F
:1085A000000C7EEB00006EEB0101B1F5801F1BD3C8
:1085B000B1F5001F0CD349085FEA30004FEA3C0CCC
:1085C00004F101044FEA445212F5800F80F09A80C2
:1085D000BCF1004F08BF5FEA500C50F1000041EBC6
:1085E000045141EA050130BD5FEA4C0C404141EBCA
:1085F0000101013C28BFB1F5801FE9D291F0000FC5
:1086000004BF01460020B1FA81F308BF2033A3F173
:108610000B03B3F120020CDA0C3208DD02F1140C6A
:10862000C2F10C0201FA0CF021FA02F10CE002F1A5
:108630001402D8BFC2F1200C01FA02F120FA0CFC9E
:10864000DCBF41EA0C019040E41AA2BF01EB0451E7
:10865000294330BD6FEA04041F3C1CDA0C340EDCE5
:1086600004F11404C4F1200220FA04F001FA02F328
:1086700040EA030021FA04F345EA030130BDC4F1E6
:108680000C04C4F1200220FA02F001FA04F340EADB
:108690000300294630BD21FA04F0294630BD94F08C
:1086A000000F83F4801306BF81F480110134013D73
:1086B0004EE77FEA645C18BF7FEA655C29D094EAE4
:1086C000050F08BF90EA020F05D054EA000C04BF62
:1086D0001946104630BD91EA030F1EBF002100204D
:1086E00030BD5FEA545C05D14000494128BF41F0EC
:1086F000004130BD14F580043CBF01F5801130BD50
:1087000001F0004545F0FE4141F470014FF00000DA
:1087100030BD7FEA645C1ABF194610467FEA655C8B
:108720001CBF0B46024650EA013406BF52EA03352D
:1087300091EA030F41F4002130BD00BF90F0000F1B
:1087400004BF0021704730B54FF4806404F1320457
:108750004FF000054FF0000150E700BF90F0000F10
:1087600004BF0021704730B54FF4806404F1320437
:1087700010F0004548BF40424FF000013EE700BF07
:1087800042004FEAE2014FEA31014FEA02701FBF97
:1087900012F07F4393F07F4F81F06051704732F0C9
:1087A0007F4208BF704793F07F4F04BF41F4002120
:1087B000704730B54FF4607401F0004521F000417E
:1087C0001CE700BF50EA010208BF704730B54FF008
:1087D00000050AE050EA010208BF704730B511F009
:1087E000004502D5404261EB41014FF4806404F141
:1087F00032045FEA915C3FF4D8AE4FF003025FEAC7
:10880000DC0C18BF03325FEADC0C18BF033202EB4A
:10881000DC02C2F1200300FA03FC20FA02F001FAA4
:1088200003FE40EA0E0021FA02F11444BDE600BF47
:1088300070B54FF0FF0C4CF4E06C1CEA11541DBFF6
:108840001CEA135594EA0C0F95EA0C0F00F0DEF8C1
:108850002C4481EA030621EA4C5123EA4C5350EAA6
:10886000013518BF52EA033541F4801143F48013F7
:1088700038D0A0FB02CE4FF00005E1FB02E506F088
:108880000042E0FB03E54FF00006E1FB03569CF0DD
:10889000000F18BF4EF0010EA4F1FF04B6F5007FE3
:1088A00064F5407404D25FEA4E0E6D4146EB060655
:1088B00042EAC62141EA55514FEAC52040EA5E50DE
:1088C0004FEACE2EB4F1FD0C88BFBCF5E06F1ED888
:1088D000BEF1004F08BF5FEA500E50F1000041EBBF
:1088E000045170BD06F0004646EA010140EA02006C
:1088F00081EA0301B4EB5C04C2BFD4EB0C0541EA8E
:10890000045170BD41F480114FF0000E013C00F3A2
:10891000AB8014F1360FDEBF002001F0004170BDC6
:10892000C4F10004203C35DA0C341BDC04F11404DF
:10893000C4F1200500FA05F320FA04F001FA05F26B
:1089400040EA020001F0004221F0004110EBD37038
:1089500021FA04F642EB06015EEA430E08BF20EA64
:10896000D37070BDC4F10C04C4F1200500FA04F307
:1089700020FA05F001FA04F240EA020001F0004199
:1089800010EBD37041F100015EEA430E08BF20EA0C
:10899000D37070BDC4F1200500FA05F24EEA020E54
:1089A00020FA04F301FA05F243EA020321FA04F083
:1089B00001F0004121FA04F220EA020000EBD3703A
:1089C0005EEA430E08BF20EAD37070BD94F0000F3A
:1089D0000FD101F00046400041EB010111F4801F6E
:1089E00008BF013CF7D041EA060195F0000F18BF1F
:1089F000704703F00046520043EB030313F4801F5B
:108A000008BF013DF7D043EA0603704794EA0C0F14
:108A10000CEA135518BF95EA0C0F0CD050EA41062A
:108A200018BF52EA4306D1D181EA030101F00041A7
:108A30004FF0000070BD50EA410606BF10461946CF
:108A400052EA430619D094EA0C0F02D150EA0136DB
:108A500013D195EA0C0F05D152EA03361CBF10461C
:108A600019460AD181EA030101F0004141F0FE41BB
:108A700041F470014FF0000070BD41F0FE4141F43F
:108A8000780170BD70B54FF0FF0C4CF4E06C1CEA3F
:108A900011541DBF1CEA135594EA0C0F95EA0C0FF4
:108AA00000F0A7F8A4EB050481EA030E52EA0335AF
:108AB0004FEA013100F088804FEA03334FF08055D0
:108AC00045EA131343EA12634FEA022245EA1115FD
:108AD00045EA10654FEA00260EF000419D4208BFAE
:108AE000964244F1FD0404F5407402D25B084FEA5B
:108AF0003202B61A65EB03055B084FEA32024FF407
:108B000080104FF4002CB6EB020E75EB030E22BF63
:108B1000B61A754640EA0C005B084FEA3202B6EB23
:108B2000020E75EB030E22BFB61A754640EA5C00D2
:108B30005B084FEA3202B6EB020E75EB030E22BF62
:108B4000B61A754640EA9C005B084FEA3202B6EB63
:108B5000020E75EB030E22BFB61A754640EADC0022
:108B600055EA060E18D04FEA051545EA16754FEA84
:108B700006164FEAC30343EA52734FEAC2025FEAA2
:108B80001C1CC0D111F4801F0BD141EA00014FF031
:108B900000004FF0004CB6E711F4801F04BF014302
:108BA0000020B4F1FD0C88BFBCF5E06F3FF6AFAE1E
:108BB000B5EB030C04BFB6EB020C5FEA500C50F1AE
:108BC000000041EB045170BD0EF0004E4EEA113131
:108BD00014EB5C04C2BFD4EB0C0541EA045170BD38
:108BE00041F480114FF0000E013C90E645EA060E7C
:108BF0008DE60CEA135594EA0C0F08BF95EA0C0FAA
:108C00003FF43BAF94EA0C0F0AD150EA01347FF4F1
:108C100034AF95EA0C0F7FF425AF104619462CE7C8
:108C200095EA0C0F06D152EA03353FF4FDAE10462B
:108C3000194622E750EA410618BF52EA43067FF47C
:108C4000C5AE50EA41047FF40DAF52EA43057FF40C
:108C5000EBAE12E74FF0FF3C06E000BF4FF0010C17
:108C600002E000BF4FF0010C4DF804CD4FEA410C7B
:108C70007FEA6C5C4FEA430C18BF7FEA6C5C1BD048
:108C800001B050EA410C0CBF52EA430C91EA030FC9
:108C900002BF90EA020F0020704710F1000F91EA26
:108CA000030F58BF994208BF90422CBFD8176FEAF4
:108CB000E37040F0010070474FEA410C7FEA6C5CC2
:108CC00002D150EA013C07D14FEA430C7FEA6C5CC9
:108CD000D6D152EA033CD3D05DF8040B704700BFF5
:108CE0008446104662468C461946634600E000BF43
:108CF00001B5FFF7B7FF002848BF10F1000F01BD15
:108D00004DF808EDFFF7F4FF0CBF012000205DF8DF
:108D100008FB00BF4DF808EDFFF7EAFF34BF012064
:108D200000205DF808FB00BF4DF808EDFFF7E0FFFD
:108D300094BF012000205DF808FB00BF4DF808ED4E
:108D4000FFF7CEFF94BF012000205DF808FB00BFB5
:108D50004DF808EDFFF7C4FF34BF012000205DF897
:108D600008FB00BF4A0011D212F5001211D20DD536
:108D70006FF47873B3EB62520ED44FEAC12343F021
:108D8000004343EA505323FA02F070474FF00000CB
:108D9000704750EA013002D14FF0FF3070474FF07A
:108DA0000000704753B94AB9002908BF00281CBF0A
:108DB0004FF0FF314FF0FF3000F08CB9ADF1080CEF
:108DC0006DE904CE00F024F8DDF804E0DDE90223CB
:108DD00004B07047D0B50C4B002206460F46FFF793
:108DE00027FDFFF7BFFF0446FFF7A8FC074B002253
:108DF000FFF71EFD02460B4630463946FFF760FB83
:108E0000FFF7B0FF2146D0BD0000F03D0000F0416B
:108E10002DE9F047089D04468C46002B40F08380E6
:108E20008A42174647D9B2FA82F242B1C2F1200013
:108E300024FA00F09140974040EA010C94404FEA38
:108E40001748230CBCFBF8F61FFA87FE08FB16C177
:108E500043EA014306FB0EF1994209D9FB1806F1DA
:108E6000FF3080F01981994240F21681023E3B4466
:108E70005B1AA4B2B3FBF8F008FB103344EA0344D6
:108E800000FB0EFEA64509D93C1900F1FF3380F026
:108E90000581A64540F2028102383C4440EA064082
:108EA000A4EB0E0400261DB1D4400023C5E9004305
:108EB0003146BDE8F08702B9FFDEB2FA82F2002A3D
:108EC00050D1CB1B4FEA174E1FFA87F80126B3FB90
:108ED000FEFC210C0EFB1C3341EA034108FB0CF3A2
:108EE0008B4207D979180CF1FF3002D28B4200F285
:108EF000E9808446C91AA3B2B1FBFEF00EFB101143
:108F000043EA014408FB00F8A04507D93C1900F1E9
:108F1000FF3302D2A04500F2D9801846A4EB080422
:108F200040EA0C40BFE78B4209D9002D00F0B18028
:108F30000026C5E9000130463146BDE8F087B3FAA6
:108F400083F6002E4AD18B4202D3824200F2B880CF
:108F5000841A61EB030101208C46002DA8D0C5E9DD
:108F6000004CA5E7C2F1200320FA03F6974001FA6E
:108F700002F04FEA174ED9403043030CB1FBFEF626
:108F80001FFA87F80EFB161143EA014306FB08F1AE
:108F9000994204FA02F409D9FB1806F1FF3C80F06B
:108FA0008D80994240F28A80023E3B445B1A81B236
:108FB000B3FBFEF00EFB103341EA034100FB08F364
:108FC0008B4207D9791800F1FF3C73D28B4271D9DB
:108FD00002383944CB1A40EA064678E7C6F1200C3D
:108FE00003FA06F422FA0CF31C4320FA0CF701FAF8
:108FF00006F34FEA144E21FA0CF11F433B0CB1FB70
:10900000FEF91FFA84F80EFB191143EA014109FB2E
:1090100008FA8A4502FA06F200FA06F308D961183E
:1090200009F1FF3048D28A4546D9A9F10209214405
:10903000A1EB0A01BFB2B1FBFEF00EFB101147EA33
:10904000014700FB08F8B84507D9E71900F1FF31DF
:109050002ED2B8452CD90238274440EA0940A7EB64
:109060000807A0FB02894F45C64649461AD317D0C8
:109070005DB1B3EB0E0267EB010707FA0CFCF2409F
:109080004CEA0202F740C5E9002700263146BDE858
:10909000F0872E4628460BE70646E9E61846FDE629
:1090A0004345E5D2B8EB020E69EB04010138DFE776
:1090B0000846D2E760468DE78146B9E7664675E720
:1090C00030464AE7ACF1020C394413E702383C441D
:1090D00024E700BF704700BF0A22002100F0F4B867
:1090E0000A22002100F0F0B810B5054C13462CB14F
:1090F0000A4601460220AFF3008010BD2046FCE77F
:10910000000000000A44914200F1FF3300D1704793
:1091100010B511F8014B03F8014F9142F9D110BD80
:1091200002440346934200D1704703F8011BF9E75C
:1091300038B50D4B1D68AB6B04467BB91820FDF7A5
:109140002BFD0A4A0A4BA863C0E90023094B836040
:109150000B23838101220023C0E90423AB6B00228F
:109160001C615A6138BD00BFECE403200E33CDAB67
:1091700034126DE6ECDE050010F8012B11F8013B0E
:10918000012A28BF9A42F7D0D01A7047034611F837
:10919000012B03F8012B002AF9D17047034613F87D
:1091A000012B002AFBD1181A0138704710B501397C
:1091B000034632B111F8014F03F8014B013A002C7C
:1091C000F7D11A440021934200D110BD03F8011BCE
:1091D000F9E700002DE9F0473A4E86468C46604696
:1091E0001CF8014BA55D15F00805F8D12D2C33D1E5
:1091F0009CF800404FF0010800F1020C002B5CD0FD
:10920000102B0CD1302C0AD19CF8000000F0DF00AC
:1092100058284DD19CF8014010230CF1020C08F1A4
:109220000047013F0026B7FBF3F9304603FB197AEC
:10923000A4F13005092D18D82C46A34224DD751C55
:1092400007D081451DD301D1A2451ADB00FB0340A5
:1092500001261CF8014BEBE72B2C08BF9CF80040C3
:10926000A84608BF00F1020CC8E7A4F14105192D7A
:1092700001D8373CE1E7A4F16105192D04D8573C2A
:10928000DBE74FF0FF36E4E7731C06D12223CEF86C
:109290000030384642B9BDE8F087B8F1000F00D081
:1092A0004042002AF7D00EB10CF1FF311160F2E715
:1092B0003024002BB3D10823B1E7302CA4D00A23EB
:1092C000ADE700BFF6A60D0013460A460146024868
:1092D0000068FFF77FBF00BFECE4032021400D00D2
:1092E0005D400D0085400D0089400D00000000002C
:1092F000256900256C6900696E006F7574007077D0
:109300006D006477006177005475726E2074686533
:1093100020706F74656E74696F6D6574657220740A
:109320006F2063616C696272617465207468652086
:10933000616D6269656E74206C696768742076611E
:109340006C7565732100446576696365206E6F7482
:1093500020666F756E642E20506C656173652063A6
:109360006865636B20776972696E672E00636E6A49
:1093700058446E5F743776637333492D50522D6AAB
:1093800062536F6247645F5F6A32714D3900627584
:1093900074746F6E20312069642070726573736518
:1093A000642E2E2E004C696768742076616C75659A
:1093B000206469707065642062656C6F77206C6FE3
:1093C00077657220626F756E6421004C69676874FE
:1093D0002076616C756520686173206469707065C2
:1093E000642062656C6F77206C6F77657220626FA6
:1093F000756E6421004C696768742076616C7565D0
:1094000020686173207265616368656420746172AD
:109410006765742072616E676521004C69676874C6
:109420002076616C75652068617320706173736567
:10943000642068696768657220626F756E642100D8
:109440000A416D6269656E742056616C75653A20DB
:109450000043656C736975733A20000A00466168C1
:1094600072656E686569743A200076770025322E41
:10947000376600696E697400626C6E6B696E6600B7
:1094800076657200312E302E3000682D6265617471
:1094900000343500627566662D696E0031303234F5
:1094A00000646576005061727469636C6500627572
:1094B000696C64004A756C202036203230323120CD
:1094C00032333A32303A34300000006465666175F8
:1094D0006C7420004D5342004C5342003C535049A1
:1094E00053657474696E67732064656661756C7426
:1094F0003E003C53504953657474696E6773202570
:10950000732575202573204D4F444525753E000079
:10951000000000003E5B4F5B3E3E6B4F6B3E1C3ECF
:109520007C3E1C183C7E3C181C577D571C1C5E7FE3
:109530005E1C00183C1800FFE7C3E7FF0018241862
:1095400000FFE7DBE7FF30483A060E262979292697
:10955000407F050507407F05253F5A3CE73C5A7F81
:109560003E1C1C08081C1C3E7F14227F22145F5FD7
:10957000005F5F06097F017F006689956A60606011
:10958000606094A2FFA29408047E040810207E204C
:109590001008082A1C08081C2A08081E10101010A1
:1095A0000C1E0C1E0C30383E3830060E3E0E0600E7
:1095B0000000000000005F00000007000700147FAB
:1095C000147F14242A7F2A12231308646236495612
:1095D00020500008070300001C2241000041221C0B
:1095E000002A1C7F1C2A08083E08080080703000F2
:1095F0000808080808000060600020100804023E07
:109600005149453E00427F40007249494946214147
:10961000494D331814127F1027454545393C4A49B6
:1096200049314121110907364949493646494929F5
:109630001E00001400000040340000000814224105
:109640001414141414004122140802015909063E8E
:10965000415D594E7C1211127C7F494949363E4189
:109660004141227F4141413E7F494949417F0909AA
:1096700009013E414151737F0808087F00417F4145
:10968000002040413F017F081422417F404040407C
:109690007F021C027F7F0408107F3E4141413E7FD4
:1096A000090909063E4151215E7F091929462649CB
:1096B00049493203017F01033F4040403F1F2040A2
:1096C000201F3F4038403F631408146303047804AC
:1096D000036159494D43007F414141020408102074
:1096E000004141417F0402010204404040404000EB
:1096F0000307080020545478407F284444383844F5
:10970000444428384444287F385454541800087E70
:10971000090218A4A49C787F0804047800447D40C2
:10972000002040403D007F1028440000417F400061
:109730007C047804787C080404783844444438FC79
:109740001824241818242418FC7C080404084854FD
:1097500054542404043F44243C4040207C1C2040BA
:10976000201C3C4030403C44281028444C909090B1
:109770007C4464544C4400083641000000770000EB
:10978000004136080002010204023C2623263C1E4A
:10979000A1A161123A4040207A38545455592155BC
:1097A00055794122545478422155547840205455DB
:1097B00079400C1E5272123955555559395454542A
:1097C0005939555454580000457C410002457D42AA
:1097D0000001457C407D1211127DF0282528F07C87
:1097E000545545002054547C547C0A097F49324921
:1097F0004949323A4444443A324A4848303A41416D
:10980000217A3A42402078009DA0A07D3D4242420C
:109810003D3D4040403D3C24FF2424487E49436672
:109820002B2FFC2F2BFF0929F620C0887E0903204F
:10983000545479410000447D413048484A32384010
:1098400040227A007A0A0A727D0D19317D26292973
:109850002F28262929292630484D40203808080875
:109860000808080808382F10C8ACBA2F102834FA96
:1098700000007B000008142A142222142A14085520
:1098800000550055AA55AA55AAFF55FF55FF0000DF
:1098900000FF00101010FF00141414FF001010FF40
:1098A00000FF1010F010F0141414FC001414F70052
:1098B000FF0000FF00FF1414F404FC141417101F21
:1098C00010101F101F1414141F00101010F00000AF
:1098D00000001F101010101F10101010F0100000CA
:1098E00000FF101010101010101010FF10000000DA
:1098F000FF140000FF00FF00001F10170000FC0411
:10990000F414141710171414F404F40000FF00F7F3
:1099100014141414141414F700F714141417141056
:10992000101F101F141414F4141010F010F0000085
:109930001F101F0000001F14000000FC140000F0A6
:1099400010F01010FF10FF141414FF141010101F4B
:1099500000000000F010FFFFFFFFFFF0F0F0F0F05C
:10996000FFFFFF0000000000FFFF0F0F0F0F0F3879
:1099700044443844FC4A4A4A347E02020606027EC7
:10998000027E0263554941633844443C04407E20D2
:109990001E2006027E020299A5E7A5991C2A492AE3
:1099A0001C4C7201724C304A4D4D30304878483072
:1099B000BC625A463D3E494949007E0101017E2A6A
:1099C0002A2A2A2A44445F444440514A444040449D
:1099D0004A51400000FF0103E080FF000008086BCF
:1099E0006B083612362436060F090F0600001818C9
:1099F0000000001010003040FF0101001F01011E97
:109A000000191D1712003C3C3C3C00000000000007
:109A10000000000000000000000000000000000046
:109A200085570D00C5710D00A5400D008D510D002D
:109A30008F510D00C1510D009D510D00AF510D0012
:109A4000D1500D008D510D00B9530D0033530D0051
:109A5000D9510D0017520D0051520D0097520D00B3
:109A600035530D00B3520D0000000000000000004F
:109A700095580D00B5580D0085570D00C5710D00A6
:109A8000695D0D008D510D008F510D00C1510D000C
:109A90009D510D00AF510D00D1500D008D510D00A5
:109AA000B9530D00235F0D00B7640D0069640D000C
:109AB00051520D0097520D0035530D00B3520D0059
:109AC00000000000000000007D500D0051500D000E
:109AD00053500D0000000000000180000000000055
